{
	"data": {
		"bytecode": {
			"linkReferences": {},
			"object": "6101406040527f5c69bee701ef814a2b6a3edd4b1652cb9cc5aa6f0000000000000000000000006080527fc778417e063141139fce010982780140aa0cd5ab00000000000000000000000060a0527fad6d458402f60fd3bd25163575031acdce07538d00000000000000000000000060c0523480156200007e57600080fd5b506040516200162438038062001624833981016040819052620000a1916200013c565b60018160ff1611620000d05760405162461bcd60e51b8152600401620000c790620001c2565b60405180910390fd5b8160ff8216808281620000df57fe5b046101208190520214620001075760405162461bcd60e51b8152600401620000c79062000172565b60e09190915260f81b7fff000000000000000000000000000000000000000000000000000000000000001661010052620001f7565b600080604083850312156200014f578182fd5b82519150602083015160ff8116811462000167578182fd5b809150509250929050565b60208082526030908201527f536c6964696e6757696e646f774f7261636c653a2057494e444f575f4e4f545f60408201526f4556454e4c595f444956495349424c4560801b606082015260800190565b6020808252818101527f536c6964696e6757696e646f774f7261636c653a204752414e554c4152495459604082015260600190565b60805160601c60a05160601c60c05160601c60e0516101005160f81c61012051611373620002b1600039806103cd528061065852806107c7528061082752508061020b52806102d652806105b552806107f352806108cb52508061031e528061038452806103f15250806102fa52806104ea5280610572528061072c5250806102b252806104c95280610551528061070b52508061034852806104a8528061053052806106ea5280610757528061078152506113736000f3fe608060405234801561001057600080fd5b50600436106100ea5760003560e01c8063a2e620451161008c578063c45a015511610066578063c45a0155146101bc578063cebb6a6c146101c4578063dbaad32f146101d7578063e4463eb2146101ea576100ea565b8063a2e6204514610188578063bfcc8e4214610192578063c1f1b1b5146101b4576100ea565b80635f64b55b116100c85780635f64b55b146101425780638a14117a1461014a5780638c86f1e41461015f57806398d5fdca14610172576100ea565b806301687ae6146100ef5780630fc63d1014610118578063556f0dc71461012d575b600080fd5b6101026100fd366004610eea565b6101f2565b60405161010f91906112b4565b60405180910390f35b6101206102b0565b60405161010f919061109a565b6101356102d4565b60405161010f9190611302565b6101206102f8565b61015261031c565b60405161010f91906112d5565b61015261016d366004610f63565b610340565b61017a61049e565b60405161010f9291906112de565b610190610529565b005b6101a56101a0366004610f39565b6106a4565b60405161010f939291906112ec565b6101206106e3565b610120610755565b6101526101d2366004610f05565b610779565b6101356101e5366004610fed565b6107c2565b610152610825565b6101fa610e8d565b6000610205426107c2565b905060007f000000000000000000000000000000000000000000000000000000000000000060ff168260010160ff168161023b57fe5b069050600080856001600160a01b03166001600160a01b031681526020019081526020016000208160ff168154811061027057fe5b9060005260206000209060030201604051806060016040529081600082015481526020016001820154815260200160028201548152505092505050919050565b7f000000000000000000000000000000000000000000000000000000000000000081565b7f000000000000000000000000000000000000000000000000000000000000000081565b7f000000000000000000000000000000000000000000000000000000000000000081565b7f000000000000000000000000000000000000000000000000000000000000000081565b60008061036e7f00000000000000000000000000000000000000000000000000000000000000008685610849565b9050600061037b826108b9565b805490915042037f00000000000000000000000000000000000000000000000000000000000000008111156103cb5760405162461bcd60e51b81526004016103c2906110ae565b60405180910390fd5b7f00000000000000000000000000000000000000000000000000000000000000006002027f0000000000000000000000000000000000000000000000000000000000000000038110156104305760405162461bcd60e51b81526004016103c290611101565b60008061043c85610947565b5091509150600061044d8a89610b3c565b509050896001600160a01b0316816001600160a01b031614156104875761047a856001015484868c610bc6565b9650505050505050610497565b61047a856002015483868c610bc6565b9392505050565b600080600061050e7f00000000000000000000000000000000000000000000000000000000000000007f00000000000000000000000000000000000000000000000000000000000000007f0000000000000000000000000000000000000000000000000000000000000000610849565b905060008061051c83610947565b5090955093505050509091565b60006105967f00000000000000000000000000000000000000000000000000000000000000007f00000000000000000000000000000000000000000000000000000000000000007f0000000000000000000000000000000000000000000000000000000000000000610849565b6001600160a01b0381166000908152602081905260409020549091505b7f000000000000000000000000000000000000000000000000000000000000000060ff16811015610607576001600160a01b03821660009081526020819052604081208054600190810182559152016105b3565b506000610613426107c2565b6001600160a01b03831660009081526020819052604081208054929350909160ff841690811061063f57fe5b60009182526020909120600390910201805490915042037f000000000000000000000000000000000000000000000000000000000000000081111561069e5760008061068a86610947565b504286556001860191909155600285015550505b50505050565b600060205281600052604060002081815481106106bd57fe5b600091825260209091206003909102018054600182015460029092015490935090915083565b60006107507f00000000000000000000000000000000000000000000000000000000000000007f00000000000000000000000000000000000000000000000000000000000000007f0000000000000000000000000000000000000000000000000000000000000000610849565b905090565b7f000000000000000000000000000000000000000000000000000000000000000081565b6000806107a77f00000000000000000000000000000000000000000000000000000000000000008585610849565b905060006107b4826108b9565b544203925050505b92915050565b6000807f000000000000000000000000000000000000000000000000000000000000000083816107ee57fe5b0490507f000000000000000000000000000000000000000000000000000000000000000060ff16818161081d57fe5b069392505050565b7f000000000000000000000000000000000000000000000000000000000000000081565b60008060006108588585610b3c565b9150915085828260405160200161087092919061101d565b60405160208183030381529060405280519060200120604051602001610897929190611044565b60408051601f1981840301815291905280516020909101209695505050505050565b6000806108c5426107c2565b905060007f000000000000000000000000000000000000000000000000000000000000000060ff168260010160ff16816108fb57fe5b069050600080856001600160a01b03166001600160a01b031681526020019081526020016000208160ff168154811061093057fe5b906000526020600020906003020192505050919050565b6000806000610954610c19565b9050836001600160a01b0316635909c0d56040518163ffffffff1660e01b815260040160206040518083038186803b15801561098f57600080fd5b505afa1580156109a3573d6000803e3d6000fd5b505050506040513d601f19601f820116820180604052508101906109c79190611005565b9250836001600160a01b0316635a3d54936040518163ffffffff1660e01b815260040160206040518083038186803b158015610a0257600080fd5b505afa158015610a16573d6000803e3d6000fd5b505050506040513d601f19601f82011682018060405250810190610a3a9190611005565b91506000806000866001600160a01b0316630902f1ac6040518163ffffffff1660e01b815260040160606040518083038186803b158015610a7a57600080fd5b505afa158015610a8e573d6000803e3d6000fd5b505050506040513d601f19601f82011682018060405250810190610ab29190610fa4565b9250925092508363ffffffff168163ffffffff1614610b325780840363ffffffff8116610aeb6001600160701b03808616908716610c23565b600001516001600160e01b031602870196508063ffffffff16610b20856001600160701b0316856001600160701b0316610c23565b516001600160e01b0316029590950194505b5050509193909250565b600080826001600160a01b0316846001600160a01b03161415610b715760405162461bcd60e51b81526004016103c290611184565b826001600160a01b0316846001600160a01b031610610b91578284610b94565b83835b90925090506001600160a01b038216610bbf5760405162461bcd60e51b81526004016103c29061127d565b9250929050565b6000610bd0610eae565b60405180602001604052808588880381610be657fe5b046001600160e01b031690529050610c06610c018285610d06565b610d65565b6001600160901b03169695505050505050565b63ffffffff421690565b610c2b610eae565b60008211610c4b5760405162461bcd60e51b81526004016103c2906111c9565b82610c6557506040805160208101909152600081526107bc565b6001600160901b038311610ccc57600082607085901b81610c8257fe5b0490506001600160e01b03811115610cac5760405162461bcd60e51b81526004016103c290611246565b6040518060200160405280826001600160e01b03168152509150506107bc565b6000610cdd84600160701b85610d6c565b90506001600160e01b03811115610cac5760405162461bcd60e51b81526004016103c290611246565b610d0e610ec0565b6000821580610d3457505082516001600160e01b031682810290838281610d3157fe5b04145b610d505760405162461bcd60e51b81526004016103c29061114d565b60408051602081019091529081529392505050565b5160701c90565b6000806000610d7b8686610df0565b9150915060008480610d8957fe5b868809905082811115610d9d576001820391505b918290039181610dbb57848381610db057fe5b049350505050610497565b848210610dda5760405162461bcd60e51b81526004016103c29061120f565b610de5838387610e1d565b979650505050505050565b6000808060001984860990508385029250828103915082811015610e15576001820391505b509250929050565b60008181038216808381610e2d57fe5b049250808581610e3957fe5b049450808160000381610e4857fe5b60028581038087028203028087028203028087028203028087028203028087028203028087028203029586029003909402930460010193909302939093010292915050565b60405180606001604052806000815260200160008152602001600081525090565b60408051602081019091526000815290565b6040518060200160405280600081525090565b80356001600160a01b03811681146107bc57600080fd5b600060208284031215610efb578081fd5b6104978383610ed3565b60008060408385031215610f17578081fd5b610f218484610ed3565b9150610f308460208501610ed3565b90509250929050565b60008060408385031215610f4b578182fd5b610f558484610ed3565b946020939093013593505050565b600080600060608486031215610f77578081fd5b8335610f8281611310565b9250602084013591506040840135610f9981611310565b809150509250925092565b600080600060608486031215610fb8578283fd5b8351610fc381611328565b6020850151909350610fd481611328565b604085015190925063ffffffff81168114610f99578182fd5b600060208284031215610ffe578081fd5b5035919050565b600060208284031215611016578081fd5b5051919050565b6bffffffffffffffffffffffff19606093841b811682529190921b16601482015260280190565b6001600160f81b0319815260609290921b6bffffffffffffffffffffffff1916600183015260158201527f96e8ac4277198ff8b6f785478aa9a39f403cb768dd02cbee326c3e7da348845f603582015260550190565b6001600160a01b0391909116815260200190565b60208082526033908201527f536c6964696e6757696e646f774f7261636c653a204d495353494e475f4849536040820152722a27a924a1a0a62fa7a129a2a92b20aa24a7a760691b606082015260800190565b6020808252602c908201527f536c6964696e6757696e646f774f7261636c653a20554e45585045435445445f60408201526b1512535157d153105414d15160a21b606082015260800190565b60208082526019908201527f4669786564506f696e743a3a6d756c3a206f766572666c6f7700000000000000604082015260600190565b60208082526025908201527f556e697377617056324c6962726172793a204944454e544943414c5f41444452604082015264455353455360d81b606082015260800190565b60208082526026908201527f4669786564506f696e743a3a6672616374696f6e3a206469766973696f6e206260408201526579207a65726f60d01b606082015260800190565b6020808252601a908201527f46756c6c4d6174683a2046554c4c4449565f4f564552464c4f57000000000000604082015260600190565b6020808252601e908201527f4669786564506f696e743a3a6672616374696f6e3a206f766572666c6f770000604082015260600190565b6020808252601e908201527f556e697377617056324c6962726172793a205a45524f5f414444524553530000604082015260600190565b81518152602080830151908201526040918201519181019190915260600190565b90815260200190565b918252602082015260400190565b9283526020830191909152604082015260600190565b60ff91909116815260200190565b6001600160a01b038116811461132557600080fd5b50565b6001600160701b038116811461132557600080fdfea264697066735822122045674122598b18f7a9fcb37abbce2a4a85b1d200ef9fc2909bc8025dfad56a8064736f6c63430006060033",
			"opcodes": "PUSH2 0x140 PUSH1 0x40 MSTORE PUSH32 0x5C69BEE701EF814A2B6A3EDD4B1652CB9CC5AA6F000000000000000000000000 PUSH1 0x80 MSTORE PUSH32 0xC778417E063141139FCE010982780140AA0CD5AB000000000000000000000000 PUSH1 0xA0 MSTORE PUSH32 0xAD6D458402F60FD3BD25163575031ACDCE07538D000000000000000000000000 PUSH1 0xC0 MSTORE CALLVALUE DUP1 ISZERO PUSH3 0x7E JUMPI PUSH1 0x0 DUP1 REVERT JUMPDEST POP PUSH1 0x40 MLOAD PUSH3 0x1624 CODESIZE SUB DUP1 PUSH3 0x1624 DUP4 CODECOPY DUP2 ADD PUSH1 0x40 DUP2 SWAP1 MSTORE PUSH3 0xA1 SWAP2 PUSH3 0x13C JUMP JUMPDEST PUSH1 0x1 DUP2 PUSH1 0xFF AND GT PUSH3 0xD0 JUMPI PUSH1 0x40 MLOAD PUSH3 0x461BCD PUSH1 0xE5 SHL DUP2 MSTORE PUSH1 0x4 ADD PUSH3 0xC7 SWAP1 PUSH3 0x1C2 JUMP JUMPDEST PUSH1 0x40 MLOAD DUP1 SWAP2 SUB SWAP1 REVERT JUMPDEST DUP2 PUSH1 0xFF DUP3 AND DUP1 DUP3 DUP2 PUSH3 0xDF JUMPI INVALID JUMPDEST DIV PUSH2 0x120 DUP2 SWAP1 MSTORE MUL EQ PUSH3 0x107 JUMPI PUSH1 0x40 MLOAD PUSH3 0x461BCD PUSH1 0xE5 SHL DUP2 MSTORE PUSH1 0x4 ADD PUSH3 0xC7 SWAP1 PUSH3 0x172 JUMP JUMPDEST PUSH1 0xE0 SWAP2 SWAP1 SWAP2 MSTORE PUSH1 0xF8 SHL PUSH32 0xFF00000000000000000000000000000000000000000000000000000000000000 AND PUSH2 0x100 MSTORE PUSH3 0x1F7 JUMP JUMPDEST PUSH1 0x0 DUP1 PUSH1 0x40 DUP4 DUP6 SUB SLT ISZERO PUSH3 0x14F JUMPI DUP2 DUP3 REVERT JUMPDEST DUP3 MLOAD SWAP2 POP PUSH1 0x20 DUP4 ADD MLOAD PUSH1 0xFF DUP2 AND DUP2 EQ PUSH3 0x167 JUMPI DUP2 DUP3 REVERT JUMPDEST DUP1 SWAP2 POP POP SWAP3 POP SWAP3 SWAP1 POP JUMP JUMPDEST PUSH1 0x20 DUP1 DUP3 MSTORE PUSH1 0x30 SWAP1 DUP3 ADD MSTORE PUSH32 0x536C6964696E6757696E646F774F7261636C653A2057494E444F575F4E4F545F PUSH1 0x40 DUP3 ADD MSTORE PUSH16 0x4556454E4C595F444956495349424C45 PUSH1 0x80 SHL PUSH1 0x60 DUP3 ADD MSTORE PUSH1 0x80 ADD SWAP1 JUMP JUMPDEST PUSH1 0x20 DUP1 DUP3 MSTORE DUP2 DUP2 ADD MSTORE PUSH32 0x536C6964696E6757696E646F774F7261636C653A204752414E554C4152495459 PUSH1 0x40 DUP3 ADD MSTORE PUSH1 0x60 ADD SWAP1 JUMP JUMPDEST PUSH1 0x80 MLOAD PUSH1 0x60 SHR PUSH1 0xA0 MLOAD PUSH1 0x60 SHR PUSH1 0xC0 MLOAD PUSH1 0x60 SHR PUSH1 0xE0 MLOAD PUSH2 0x100 MLOAD PUSH1 0xF8 SHR PUSH2 0x120 MLOAD PUSH2 0x1373 PUSH3 0x2B1 PUSH1 0x0 CODECOPY DUP1 PUSH2 0x3CD MSTORE DUP1 PUSH2 0x658 MSTORE DUP1 PUSH2 0x7C7 MSTORE DUP1 PUSH2 0x827 MSTORE POP DUP1 PUSH2 0x20B MSTORE DUP1 PUSH2 0x2D6 MSTORE DUP1 PUSH2 0x5B5 MSTORE DUP1 PUSH2 0x7F3 MSTORE DUP1 PUSH2 0x8CB MSTORE POP DUP1 PUSH2 0x31E MSTORE DUP1 PUSH2 0x384 MSTORE DUP1 PUSH2 0x3F1 MSTORE POP DUP1 PUSH2 0x2FA MSTORE DUP1 PUSH2 0x4EA MSTORE DUP1 PUSH2 0x572 MSTORE DUP1 PUSH2 0x72C MSTORE POP DUP1 PUSH2 0x2B2 MSTORE DUP1 PUSH2 0x4C9 MSTORE DUP1 PUSH2 0x551 MSTORE DUP1 PUSH2 0x70B MSTORE POP DUP1 PUSH2 0x348 MSTORE DUP1 PUSH2 0x4A8 MSTORE DUP1 PUSH2 0x530 MSTORE DUP1 PUSH2 0x6EA MSTORE DUP1 PUSH2 0x757 MSTORE DUP1 PUSH2 0x781 MSTORE POP PUSH2 0x1373 PUSH1 0x0 RETURN INVALID PUSH1 0x80 PUSH1 0x40 MSTORE CALLVALUE DUP1 ISZERO PUSH2 0x10 JUMPI PUSH1 0x0 DUP1 REVERT JUMPDEST POP PUSH1 0x4 CALLDATASIZE LT PUSH2 0xEA JUMPI PUSH1 0x0 CALLDATALOAD PUSH1 0xE0 SHR DUP1 PUSH4 0xA2E62045 GT PUSH2 0x8C JUMPI DUP1 PUSH4 0xC45A0155 GT PUSH2 0x66 JUMPI DUP1 PUSH4 0xC45A0155 EQ PUSH2 0x1BC JUMPI DUP1 PUSH4 0xCEBB6A6C EQ PUSH2 0x1C4 JUMPI DUP1 PUSH4 0xDBAAD32F EQ PUSH2 0x1D7 JUMPI DUP1 PUSH4 0xE4463EB2 EQ PUSH2 0x1EA JUMPI PUSH2 0xEA JUMP JUMPDEST DUP1 PUSH4 0xA2E62045 EQ PUSH2 0x188 JUMPI DUP1 PUSH4 0xBFCC8E42 EQ PUSH2 0x192 JUMPI DUP1 PUSH4 0xC1F1B1B5 EQ PUSH2 0x1B4 JUMPI PUSH2 0xEA JUMP JUMPDEST DUP1 PUSH4 0x5F64B55B GT PUSH2 0xC8 JUMPI DUP1 PUSH4 0x5F64B55B EQ PUSH2 0x142 JUMPI DUP1 PUSH4 0x8A14117A EQ PUSH2 0x14A JUMPI DUP1 PUSH4 0x8C86F1E4 EQ PUSH2 0x15F JUMPI DUP1 PUSH4 0x98D5FDCA EQ PUSH2 0x172 JUMPI PUSH2 0xEA JUMP JUMPDEST DUP1 PUSH4 0x1687AE6 EQ PUSH2 0xEF JUMPI DUP1 PUSH4 0xFC63D10 EQ PUSH2 0x118 JUMPI DUP1 PUSH4 0x556F0DC7 EQ PUSH2 0x12D JUMPI JUMPDEST PUSH1 0x0 DUP1 REVERT JUMPDEST PUSH2 0x102 PUSH2 0xFD CALLDATASIZE PUSH1 0x4 PUSH2 0xEEA JUMP JUMPDEST PUSH2 0x1F2 JUMP JUMPDEST PUSH1 0x40 MLOAD PUSH2 0x10F SWAP2 SWAP1 PUSH2 0x12B4 JUMP JUMPDEST PUSH1 0x40 MLOAD DUP1 SWAP2 SUB SWAP1 RETURN JUMPDEST PUSH2 0x120 PUSH2 0x2B0 JUMP JUMPDEST PUSH1 0x40 MLOAD PUSH2 0x10F SWAP2 SWAP1 PUSH2 0x109A JUMP JUMPDEST PUSH2 0x135 PUSH2 0x2D4 JUMP JUMPDEST PUSH1 0x40 MLOAD PUSH2 0x10F SWAP2 SWAP1 PUSH2 0x1302 JUMP JUMPDEST PUSH2 0x120 PUSH2 0x2F8 JUMP JUMPDEST PUSH2 0x152 PUSH2 0x31C JUMP JUMPDEST PUSH1 0x40 MLOAD PUSH2 0x10F SWAP2 SWAP1 PUSH2 0x12D5 JUMP JUMPDEST PUSH2 0x152 PUSH2 0x16D CALLDATASIZE PUSH1 0x4 PUSH2 0xF63 JUMP JUMPDEST PUSH2 0x340 JUMP JUMPDEST PUSH2 0x17A PUSH2 0x49E JUMP JUMPDEST PUSH1 0x40 MLOAD PUSH2 0x10F SWAP3 SWAP2 SWAP1 PUSH2 0x12DE JUMP JUMPDEST PUSH2 0x190 PUSH2 0x529 JUMP JUMPDEST STOP JUMPDEST PUSH2 0x1A5 PUSH2 0x1A0 CALLDATASIZE PUSH1 0x4 PUSH2 0xF39 JUMP JUMPDEST PUSH2 0x6A4 JUMP JUMPDEST PUSH1 0x40 MLOAD PUSH2 0x10F SWAP4 SWAP3 SWAP2 SWAP1 PUSH2 0x12EC JUMP JUMPDEST PUSH2 0x120 PUSH2 0x6E3 JUMP JUMPDEST PUSH2 0x120 PUSH2 0x755 JUMP JUMPDEST PUSH2 0x152 PUSH2 0x1D2 CALLDATASIZE PUSH1 0x4 PUSH2 0xF05 JUMP JUMPDEST PUSH2 0x779 JUMP JUMPDEST PUSH2 0x135 PUSH2 0x1E5 CALLDATASIZE PUSH1 0x4 PUSH2 0xFED JUMP JUMPDEST PUSH2 0x7C2 JUMP JUMPDEST PUSH2 0x152 PUSH2 0x825 JUMP JUMPDEST PUSH2 0x1FA PUSH2 0xE8D JUMP JUMPDEST PUSH1 0x0 PUSH2 0x205 TIMESTAMP PUSH2 0x7C2 JUMP JUMPDEST SWAP1 POP PUSH1 0x0 PUSH32 0x0 PUSH1 0xFF AND DUP3 PUSH1 0x1 ADD PUSH1 0xFF AND DUP2 PUSH2 0x23B JUMPI INVALID JUMPDEST MOD SWAP1 POP PUSH1 0x0 DUP1 DUP6 PUSH1 0x1 PUSH1 0x1 PUSH1 0xA0 SHL SUB AND PUSH1 0x1 PUSH1 0x1 PUSH1 0xA0 SHL SUB AND DUP2 MSTORE PUSH1 0x20 ADD SWAP1 DUP2 MSTORE PUSH1 0x20 ADD PUSH1 0x0 KECCAK256 DUP2 PUSH1 0xFF AND DUP2 SLOAD DUP2 LT PUSH2 0x270 JUMPI INVALID JUMPDEST SWAP1 PUSH1 0x0 MSTORE PUSH1 0x20 PUSH1 0x0 KECCAK256 SWAP1 PUSH1 0x3 MUL ADD PUSH1 0x40 MLOAD DUP1 PUSH1 0x60 ADD PUSH1 0x40 MSTORE SWAP1 DUP2 PUSH1 0x0 DUP3 ADD SLOAD DUP2 MSTORE PUSH1 0x20 ADD PUSH1 0x1 DUP3 ADD SLOAD DUP2 MSTORE PUSH1 0x20 ADD PUSH1 0x2 DUP3 ADD SLOAD DUP2 MSTORE POP POP SWAP3 POP POP POP SWAP2 SWAP1 POP JUMP JUMPDEST PUSH32 0x0 DUP2 JUMP JUMPDEST PUSH32 0x0 DUP2 JUMP JUMPDEST PUSH32 0x0 DUP2 JUMP JUMPDEST PUSH32 0x0 DUP2 JUMP JUMPDEST PUSH1 0x0 DUP1 PUSH2 0x36E PUSH32 0x0 DUP7 DUP6 PUSH2 0x849 JUMP JUMPDEST SWAP1 POP PUSH1 0x0 PUSH2 0x37B DUP3 PUSH2 0x8B9 JUMP JUMPDEST DUP1 SLOAD SWAP1 SWAP2 POP TIMESTAMP SUB PUSH32 0x0 DUP2 GT ISZERO PUSH2 0x3CB JUMPI PUSH1 0x40 MLOAD PUSH3 0x461BCD PUSH1 0xE5 SHL DUP2 MSTORE PUSH1 0x4 ADD PUSH2 0x3C2 SWAP1 PUSH2 0x10AE JUMP JUMPDEST PUSH1 0x40 MLOAD DUP1 SWAP2 SUB SWAP1 REVERT JUMPDEST PUSH32 0x0 PUSH1 0x2 MUL PUSH32 0x0 SUB DUP2 LT ISZERO PUSH2 0x430 JUMPI PUSH1 0x40 MLOAD PUSH3 0x461BCD PUSH1 0xE5 SHL DUP2 MSTORE PUSH1 0x4 ADD PUSH2 0x3C2 SWAP1 PUSH2 0x1101 JUMP JUMPDEST PUSH1 0x0 DUP1 PUSH2 0x43C DUP6 PUSH2 0x947 JUMP JUMPDEST POP SWAP2 POP SWAP2 POP PUSH1 0x0 PUSH2 0x44D DUP11 DUP10 PUSH2 0xB3C JUMP JUMPDEST POP SWAP1 POP DUP10 PUSH1 0x1 PUSH1 0x1 PUSH1 0xA0 SHL SUB AND DUP2 PUSH1 0x1 PUSH1 0x1 PUSH1 0xA0 SHL SUB AND EQ ISZERO PUSH2 0x487 JUMPI PUSH2 0x47A DUP6 PUSH1 0x1 ADD SLOAD DUP5 DUP7 DUP13 PUSH2 0xBC6 JUMP JUMPDEST SWAP7 POP POP POP POP POP POP POP PUSH2 0x497 JUMP JUMPDEST PUSH2 0x47A DUP6 PUSH1 0x2 ADD SLOAD DUP4 DUP7 DUP13 PUSH2 0xBC6 JUMP JUMPDEST SWAP4 SWAP3 POP POP POP JUMP JUMPDEST PUSH1 0x0 DUP1 PUSH1 0x0 PUSH2 0x50E PUSH32 0x0 PUSH32 0x0 PUSH32 0x0 PUSH2 0x849 JUMP JUMPDEST SWAP1 POP PUSH1 0x0 DUP1 PUSH2 0x51C DUP4 PUSH2 0x947 JUMP JUMPDEST POP SWAP1 SWAP6 POP SWAP4 POP POP POP POP SWAP1 SWAP2 JUMP JUMPDEST PUSH1 0x0 PUSH2 0x596 PUSH32 0x0 PUSH32 0x0 PUSH32 0x0 PUSH2 0x849 JUMP JUMPDEST PUSH1 0x1 PUSH1 0x1 PUSH1 0xA0 SHL SUB DUP2 AND PUSH1 0x0 SWAP1 DUP2 MSTORE PUSH1 0x20 DUP2 SWAP1 MSTORE PUSH1 0x40 SWAP1 KECCAK256 SLOAD SWAP1 SWAP2 POP JUMPDEST PUSH32 0x0 PUSH1 0xFF AND DUP2 LT ISZERO PUSH2 0x607 JUMPI PUSH1 0x1 PUSH1 0x1 PUSH1 0xA0 SHL SUB DUP3 AND PUSH1 0x0 SWAP1 DUP2 MSTORE PUSH1 0x20 DUP2 SWAP1 MSTORE PUSH1 0x40 DUP2 KECCAK256 DUP1 SLOAD PUSH1 0x1 SWAP1 DUP2 ADD DUP3 SSTORE SWAP2 MSTORE ADD PUSH2 0x5B3 JUMP JUMPDEST POP PUSH1 0x0 PUSH2 0x613 TIMESTAMP PUSH2 0x7C2 JUMP JUMPDEST PUSH1 0x1 PUSH1 0x1 PUSH1 0xA0 SHL SUB DUP4 AND PUSH1 0x0 SWAP1 DUP2 MSTORE PUSH1 0x20 DUP2 SWAP1 MSTORE PUSH1 0x40 DUP2 KECCAK256 DUP1 SLOAD SWAP3 SWAP4 POP SWAP1 SWAP2 PUSH1 0xFF DUP5 AND SWAP1 DUP2 LT PUSH2 0x63F JUMPI INVALID JUMPDEST PUSH1 0x0 SWAP2 DUP3 MSTORE PUSH1 0x20 SWAP1 SWAP2 KECCAK256 PUSH1 0x3 SWAP1 SWAP2 MUL ADD DUP1 SLOAD SWAP1 SWAP2 POP TIMESTAMP SUB PUSH32 0x0 DUP2 GT ISZERO PUSH2 0x69E JUMPI PUSH1 0x0 DUP1 PUSH2 0x68A DUP7 PUSH2 0x947 JUMP JUMPDEST POP TIMESTAMP DUP7 SSTORE PUSH1 0x1 DUP7 ADD SWAP2 SWAP1 SWAP2 SSTORE PUSH1 0x2 DUP6 ADD SSTORE POP POP JUMPDEST POP POP POP POP JUMP JUMPDEST PUSH1 0x0 PUSH1 0x20 MSTORE DUP2 PUSH1 0x0 MSTORE PUSH1 0x40 PUSH1 0x0 KECCAK256 DUP2 DUP2 SLOAD DUP2 LT PUSH2 0x6BD JUMPI INVALID JUMPDEST PUSH1 0x0 SWAP2 DUP3 MSTORE PUSH1 0x20 SWAP1 SWAP2 KECCAK256 PUSH1 0x3 SWAP1 SWAP2 MUL ADD DUP1 SLOAD PUSH1 0x1 DUP3 ADD SLOAD PUSH1 0x2 SWAP1 SWAP3 ADD SLOAD SWAP1 SWAP4 POP SWAP1 SWAP2 POP DUP4 JUMP JUMPDEST PUSH1 0x0 PUSH2 0x750 PUSH32 0x0 PUSH32 0x0 PUSH32 0x0 PUSH2 0x849 JUMP JUMPDEST SWAP1 POP SWAP1 JUMP JUMPDEST PUSH32 0x0 DUP2 JUMP JUMPDEST PUSH1 0x0 DUP1 PUSH2 0x7A7 PUSH32 0x0 DUP6 DUP6 PUSH2 0x849 JUMP JUMPDEST SWAP1 POP PUSH1 0x0 PUSH2 0x7B4 DUP3 PUSH2 0x8B9 JUMP JUMPDEST SLOAD TIMESTAMP SUB SWAP3 POP POP POP JUMPDEST SWAP3 SWAP2 POP POP JUMP JUMPDEST PUSH1 0x0 DUP1 PUSH32 0x0 DUP4 DUP2 PUSH2 0x7EE JUMPI INVALID JUMPDEST DIV SWAP1 POP PUSH32 0x0 PUSH1 0xFF AND DUP2 DUP2 PUSH2 0x81D JUMPI INVALID JUMPDEST MOD SWAP4 SWAP3 POP POP POP JUMP JUMPDEST PUSH32 0x0 DUP2 JUMP JUMPDEST PUSH1 0x0 DUP1 PUSH1 0x0 PUSH2 0x858 DUP6 DUP6 PUSH2 0xB3C JUMP JUMPDEST SWAP2 POP SWAP2 POP DUP6 DUP3 DUP3 PUSH1 0x40 MLOAD PUSH1 0x20 ADD PUSH2 0x870 SWAP3 SWAP2 SWAP1 PUSH2 0x101D JUMP JUMPDEST PUSH1 0x40 MLOAD PUSH1 0x20 DUP2 DUP4 SUB SUB DUP2 MSTORE SWAP1 PUSH1 0x40 MSTORE DUP1 MLOAD SWAP1 PUSH1 0x20 ADD KECCAK256 PUSH1 0x40 MLOAD PUSH1 0x20 ADD PUSH2 0x897 SWAP3 SWAP2 SWAP1 PUSH2 0x1044 JUMP JUMPDEST PUSH1 0x40 DUP1 MLOAD PUSH1 0x1F NOT DUP2 DUP5 SUB ADD DUP2 MSTORE SWAP2 SWAP1 MSTORE DUP1 MLOAD PUSH1 0x20 SWAP1 SWAP2 ADD KECCAK256 SWAP7 SWAP6 POP POP POP POP POP POP JUMP JUMPDEST PUSH1 0x0 DUP1 PUSH2 0x8C5 TIMESTAMP PUSH2 0x7C2 JUMP JUMPDEST SWAP1 POP PUSH1 0x0 PUSH32 0x0 PUSH1 0xFF AND DUP3 PUSH1 0x1 ADD PUSH1 0xFF AND DUP2 PUSH2 0x8FB JUMPI INVALID JUMPDEST MOD SWAP1 POP PUSH1 0x0 DUP1 DUP6 PUSH1 0x1 PUSH1 0x1 PUSH1 0xA0 SHL SUB AND PUSH1 0x1 PUSH1 0x1 PUSH1 0xA0 SHL SUB AND DUP2 MSTORE PUSH1 0x20 ADD SWAP1 DUP2 MSTORE PUSH1 0x20 ADD PUSH1 0x0 KECCAK256 DUP2 PUSH1 0xFF AND DUP2 SLOAD DUP2 LT PUSH2 0x930 JUMPI INVALID JUMPDEST SWAP1 PUSH1 0x0 MSTORE PUSH1 0x20 PUSH1 0x0 KECCAK256 SWAP1 PUSH1 0x3 MUL ADD SWAP3 POP POP POP SWAP2 SWAP1 POP JUMP JUMPDEST PUSH1 0x0 DUP1 PUSH1 0x0 PUSH2 0x954 PUSH2 0xC19 JUMP JUMPDEST SWAP1 POP DUP4 PUSH1 0x1 PUSH1 0x1 PUSH1 0xA0 SHL SUB AND PUSH4 0x5909C0D5 PUSH1 0x40 MLOAD DUP2 PUSH4 0xFFFFFFFF AND PUSH1 0xE0 SHL DUP2 MSTORE PUSH1 0x4 ADD PUSH1 0x20 PUSH1 0x40 MLOAD DUP1 DUP4 SUB DUP2 DUP7 DUP1 EXTCODESIZE ISZERO DUP1 ISZERO PUSH2 0x98F JUMPI PUSH1 0x0 DUP1 REVERT JUMPDEST POP GAS STATICCALL ISZERO DUP1 ISZERO PUSH2 0x9A3 JUMPI RETURNDATASIZE PUSH1 0x0 DUP1 RETURNDATACOPY RETURNDATASIZE PUSH1 0x0 REVERT JUMPDEST POP POP POP POP PUSH1 0x40 MLOAD RETURNDATASIZE PUSH1 0x1F NOT PUSH1 0x1F DUP3 ADD AND DUP3 ADD DUP1 PUSH1 0x40 MSTORE POP DUP2 ADD SWAP1 PUSH2 0x9C7 SWAP2 SWAP1 PUSH2 0x1005 JUMP JUMPDEST SWAP3 POP DUP4 PUSH1 0x1 PUSH1 0x1 PUSH1 0xA0 SHL SUB AND PUSH4 0x5A3D5493 PUSH1 0x40 MLOAD DUP2 PUSH4 0xFFFFFFFF AND PUSH1 0xE0 SHL DUP2 MSTORE PUSH1 0x4 ADD PUSH1 0x20 PUSH1 0x40 MLOAD DUP1 DUP4 SUB DUP2 DUP7 DUP1 EXTCODESIZE ISZERO DUP1 ISZERO PUSH2 0xA02 JUMPI PUSH1 0x0 DUP1 REVERT JUMPDEST POP GAS STATICCALL ISZERO DUP1 ISZERO PUSH2 0xA16 JUMPI RETURNDATASIZE PUSH1 0x0 DUP1 RETURNDATACOPY RETURNDATASIZE PUSH1 0x0 REVERT JUMPDEST POP POP POP POP PUSH1 0x40 MLOAD RETURNDATASIZE PUSH1 0x1F NOT PUSH1 0x1F DUP3 ADD AND DUP3 ADD DUP1 PUSH1 0x40 MSTORE POP DUP2 ADD SWAP1 PUSH2 0xA3A SWAP2 SWAP1 PUSH2 0x1005 JUMP JUMPDEST SWAP2 POP PUSH1 0x0 DUP1 PUSH1 0x0 DUP7 PUSH1 0x1 PUSH1 0x1 PUSH1 0xA0 SHL SUB AND PUSH4 0x902F1AC PUSH1 0x40 MLOAD DUP2 PUSH4 0xFFFFFFFF AND PUSH1 0xE0 SHL DUP2 MSTORE PUSH1 0x4 ADD PUSH1 0x60 PUSH1 0x40 MLOAD DUP1 DUP4 SUB DUP2 DUP7 DUP1 EXTCODESIZE ISZERO DUP1 ISZERO PUSH2 0xA7A JUMPI PUSH1 0x0 DUP1 REVERT JUMPDEST POP GAS STATICCALL ISZERO DUP1 ISZERO PUSH2 0xA8E JUMPI RETURNDATASIZE PUSH1 0x0 DUP1 RETURNDATACOPY RETURNDATASIZE PUSH1 0x0 REVERT JUMPDEST POP POP POP POP PUSH1 0x40 MLOAD RETURNDATASIZE PUSH1 0x1F NOT PUSH1 0x1F DUP3 ADD AND DUP3 ADD DUP1 PUSH1 0x40 MSTORE POP DUP2 ADD SWAP1 PUSH2 0xAB2 SWAP2 SWAP1 PUSH2 0xFA4 JUMP JUMPDEST SWAP3 POP SWAP3 POP SWAP3 POP DUP4 PUSH4 0xFFFFFFFF AND DUP2 PUSH4 0xFFFFFFFF AND EQ PUSH2 0xB32 JUMPI DUP1 DUP5 SUB PUSH4 0xFFFFFFFF DUP2 AND PUSH2 0xAEB PUSH1 0x1 PUSH1 0x1 PUSH1 0x70 SHL SUB DUP1 DUP7 AND SWAP1 DUP8 AND PUSH2 0xC23 JUMP JUMPDEST PUSH1 0x0 ADD MLOAD PUSH1 0x1 PUSH1 0x1 PUSH1 0xE0 SHL SUB AND MUL DUP8 ADD SWAP7 POP DUP1 PUSH4 0xFFFFFFFF AND PUSH2 0xB20 DUP6 PUSH1 0x1 PUSH1 0x1 PUSH1 0x70 SHL SUB AND DUP6 PUSH1 0x1 PUSH1 0x1 PUSH1 0x70 SHL SUB AND PUSH2 0xC23 JUMP JUMPDEST MLOAD PUSH1 0x1 PUSH1 0x1 PUSH1 0xE0 SHL SUB AND MUL SWAP6 SWAP1 SWAP6 ADD SWAP5 POP JUMPDEST POP POP POP SWAP2 SWAP4 SWAP1 SWAP3 POP JUMP JUMPDEST PUSH1 0x0 DUP1 DUP3 PUSH1 0x1 PUSH1 0x1 PUSH1 0xA0 SHL SUB AND DUP5 PUSH1 0x1 PUSH1 0x1 PUSH1 0xA0 SHL SUB AND EQ ISZERO PUSH2 0xB71 JUMPI PUSH1 0x40 MLOAD PUSH3 0x461BCD PUSH1 0xE5 SHL DUP2 MSTORE PUSH1 0x4 ADD PUSH2 0x3C2 SWAP1 PUSH2 0x1184 JUMP JUMPDEST DUP3 PUSH1 0x1 PUSH1 0x1 PUSH1 0xA0 SHL SUB AND DUP5 PUSH1 0x1 PUSH1 0x1 PUSH1 0xA0 SHL SUB AND LT PUSH2 0xB91 JUMPI DUP3 DUP5 PUSH2 0xB94 JUMP JUMPDEST DUP4 DUP4 JUMPDEST SWAP1 SWAP3 POP SWAP1 POP PUSH1 0x1 PUSH1 0x1 PUSH1 0xA0 SHL SUB DUP3 AND PUSH2 0xBBF JUMPI PUSH1 0x40 MLOAD PUSH3 0x461BCD PUSH1 0xE5 SHL DUP2 MSTORE PUSH1 0x4 ADD PUSH2 0x3C2 SWAP1 PUSH2 0x127D JUMP JUMPDEST SWAP3 POP SWAP3 SWAP1 POP JUMP JUMPDEST PUSH1 0x0 PUSH2 0xBD0 PUSH2 0xEAE JUMP JUMPDEST PUSH1 0x40 MLOAD DUP1 PUSH1 0x20 ADD PUSH1 0x40 MSTORE DUP1 DUP6 DUP9 DUP9 SUB DUP2 PUSH2 0xBE6 JUMPI INVALID JUMPDEST DIV PUSH1 0x1 PUSH1 0x1 PUSH1 0xE0 SHL SUB AND SWAP1 MSTORE SWAP1 POP PUSH2 0xC06 PUSH2 0xC01 DUP3 DUP6 PUSH2 0xD06 JUMP JUMPDEST PUSH2 0xD65 JUMP JUMPDEST PUSH1 0x1 PUSH1 0x1 PUSH1 0x90 SHL SUB AND SWAP7 SWAP6 POP POP POP POP POP POP JUMP JUMPDEST PUSH4 0xFFFFFFFF TIMESTAMP AND SWAP1 JUMP JUMPDEST PUSH2 0xC2B PUSH2 0xEAE JUMP JUMPDEST PUSH1 0x0 DUP3 GT PUSH2 0xC4B JUMPI PUSH1 0x40 MLOAD PUSH3 0x461BCD PUSH1 0xE5 SHL DUP2 MSTORE PUSH1 0x4 ADD PUSH2 0x3C2 SWAP1 PUSH2 0x11C9 JUMP JUMPDEST DUP3 PUSH2 0xC65 JUMPI POP PUSH1 0x40 DUP1 MLOAD PUSH1 0x20 DUP2 ADD SWAP1 SWAP2 MSTORE PUSH1 0x0 DUP2 MSTORE PUSH2 0x7BC JUMP JUMPDEST PUSH1 0x1 PUSH1 0x1 PUSH1 0x90 SHL SUB DUP4 GT PUSH2 0xCCC JUMPI PUSH1 0x0 DUP3 PUSH1 0x70 DUP6 SWAP1 SHL DUP2 PUSH2 0xC82 JUMPI INVALID JUMPDEST DIV SWAP1 POP PUSH1 0x1 PUSH1 0x1 PUSH1 0xE0 SHL SUB DUP2 GT ISZERO PUSH2 0xCAC JUMPI PUSH1 0x40 MLOAD PUSH3 0x461BCD PUSH1 0xE5 SHL DUP2 MSTORE PUSH1 0x4 ADD PUSH2 0x3C2 SWAP1 PUSH2 0x1246 JUMP JUMPDEST PUSH1 0x40 MLOAD DUP1 PUSH1 0x20 ADD PUSH1 0x40 MSTORE DUP1 DUP3 PUSH1 0x1 PUSH1 0x1 PUSH1 0xE0 SHL SUB AND DUP2 MSTORE POP SWAP2 POP POP PUSH2 0x7BC JUMP JUMPDEST PUSH1 0x0 PUSH2 0xCDD DUP5 PUSH1 0x1 PUSH1 0x70 SHL DUP6 PUSH2 0xD6C JUMP JUMPDEST SWAP1 POP PUSH1 0x1 PUSH1 0x1 PUSH1 0xE0 SHL SUB DUP2 GT ISZERO PUSH2 0xCAC JUMPI PUSH1 0x40 MLOAD PUSH3 0x461BCD PUSH1 0xE5 SHL DUP2 MSTORE PUSH1 0x4 ADD PUSH2 0x3C2 SWAP1 PUSH2 0x1246 JUMP JUMPDEST PUSH2 0xD0E PUSH2 0xEC0 JUMP JUMPDEST PUSH1 0x0 DUP3 ISZERO DUP1 PUSH2 0xD34 JUMPI POP POP DUP3 MLOAD PUSH1 0x1 PUSH1 0x1 PUSH1 0xE0 SHL SUB AND DUP3 DUP2 MUL SWAP1 DUP4 DUP3 DUP2 PUSH2 0xD31 JUMPI INVALID JUMPDEST DIV EQ JUMPDEST PUSH2 0xD50 JUMPI PUSH1 0x40 MLOAD PUSH3 0x461BCD PUSH1 0xE5 SHL DUP2 MSTORE PUSH1 0x4 ADD PUSH2 0x3C2 SWAP1 PUSH2 0x114D JUMP JUMPDEST PUSH1 0x40 DUP1 MLOAD PUSH1 0x20 DUP2 ADD SWAP1 SWAP2 MSTORE SWAP1 DUP2 MSTORE SWAP4 SWAP3 POP POP POP JUMP JUMPDEST MLOAD PUSH1 0x70 SHR SWAP1 JUMP JUMPDEST PUSH1 0x0 DUP1 PUSH1 0x0 PUSH2 0xD7B DUP7 DUP7 PUSH2 0xDF0 JUMP JUMPDEST SWAP2 POP SWAP2 POP PUSH1 0x0 DUP5 DUP1 PUSH2 0xD89 JUMPI INVALID JUMPDEST DUP7 DUP9 MULMOD SWAP1 POP DUP3 DUP2 GT ISZERO PUSH2 0xD9D JUMPI PUSH1 0x1 DUP3 SUB SWAP2 POP JUMPDEST SWAP2 DUP3 SWAP1 SUB SWAP2 DUP2 PUSH2 0xDBB JUMPI DUP5 DUP4 DUP2 PUSH2 0xDB0 JUMPI INVALID JUMPDEST DIV SWAP4 POP POP POP POP PUSH2 0x497 JUMP JUMPDEST DUP5 DUP3 LT PUSH2 0xDDA JUMPI PUSH1 0x40 MLOAD PUSH3 0x461BCD PUSH1 0xE5 SHL DUP2 MSTORE PUSH1 0x4 ADD PUSH2 0x3C2 SWAP1 PUSH2 0x120F JUMP JUMPDEST PUSH2 0xDE5 DUP4 DUP4 DUP8 PUSH2 0xE1D JUMP JUMPDEST SWAP8 SWAP7 POP POP POP POP POP POP POP JUMP JUMPDEST PUSH1 0x0 DUP1 DUP1 PUSH1 0x0 NOT DUP5 DUP7 MULMOD SWAP1 POP DUP4 DUP6 MUL SWAP3 POP DUP3 DUP2 SUB SWAP2 POP DUP3 DUP2 LT ISZERO PUSH2 0xE15 JUMPI PUSH1 0x1 DUP3 SUB SWAP2 POP JUMPDEST POP SWAP3 POP SWAP3 SWAP1 POP JUMP JUMPDEST PUSH1 0x0 DUP2 DUP2 SUB DUP3 AND DUP1 DUP4 DUP2 PUSH2 0xE2D JUMPI INVALID JUMPDEST DIV SWAP3 POP DUP1 DUP6 DUP2 PUSH2 0xE39 JUMPI INVALID JUMPDEST DIV SWAP5 POP DUP1 DUP2 PUSH1 0x0 SUB DUP2 PUSH2 0xE48 JUMPI INVALID JUMPDEST PUSH1 0x2 DUP6 DUP2 SUB DUP1 DUP8 MUL DUP3 SUB MUL DUP1 DUP8 MUL DUP3 SUB MUL DUP1 DUP8 MUL DUP3 SUB MUL DUP1 DUP8 MUL DUP3 SUB MUL DUP1 DUP8 MUL DUP3 SUB MUL DUP1 DUP8 MUL DUP3 SUB MUL SWAP6 DUP7 MUL SWAP1 SUB SWAP1 SWAP5 MUL SWAP4 DIV PUSH1 0x1 ADD SWAP4 SWAP1 SWAP4 MUL SWAP4 SWAP1 SWAP4 ADD MUL SWAP3 SWAP2 POP POP JUMP JUMPDEST PUSH1 0x40 MLOAD DUP1 PUSH1 0x60 ADD PUSH1 0x40 MSTORE DUP1 PUSH1 0x0 DUP2 MSTORE PUSH1 0x20 ADD PUSH1 0x0 DUP2 MSTORE PUSH1 0x20 ADD PUSH1 0x0 DUP2 MSTORE POP SWAP1 JUMP JUMPDEST PUSH1 0x40 DUP1 MLOAD PUSH1 0x20 DUP2 ADD SWAP1 SWAP2 MSTORE PUSH1 0x0 DUP2 MSTORE SWAP1 JUMP JUMPDEST PUSH1 0x40 MLOAD DUP1 PUSH1 0x20 ADD PUSH1 0x40 MSTORE DUP1 PUSH1 0x0 DUP2 MSTORE POP SWAP1 JUMP JUMPDEST DUP1 CALLDATALOAD PUSH1 0x1 PUSH1 0x1 PUSH1 0xA0 SHL SUB DUP2 AND DUP2 EQ PUSH2 0x7BC JUMPI PUSH1 0x0 DUP1 REVERT JUMPDEST PUSH1 0x0 PUSH1 0x20 DUP3 DUP5 SUB SLT ISZERO PUSH2 0xEFB JUMPI DUP1 DUP2 REVERT JUMPDEST PUSH2 0x497 DUP4 DUP4 PUSH2 0xED3 JUMP JUMPDEST PUSH1 0x0 DUP1 PUSH1 0x40 DUP4 DUP6 SUB SLT ISZERO PUSH2 0xF17 JUMPI DUP1 DUP2 REVERT JUMPDEST PUSH2 0xF21 DUP5 DUP5 PUSH2 0xED3 JUMP JUMPDEST SWAP2 POP PUSH2 0xF30 DUP5 PUSH1 0x20 DUP6 ADD PUSH2 0xED3 JUMP JUMPDEST SWAP1 POP SWAP3 POP SWAP3 SWAP1 POP JUMP JUMPDEST PUSH1 0x0 DUP1 PUSH1 0x40 DUP4 DUP6 SUB SLT ISZERO PUSH2 0xF4B JUMPI DUP2 DUP3 REVERT JUMPDEST PUSH2 0xF55 DUP5 DUP5 PUSH2 0xED3 JUMP JUMPDEST SWAP5 PUSH1 0x20 SWAP4 SWAP1 SWAP4 ADD CALLDATALOAD SWAP4 POP POP POP JUMP JUMPDEST PUSH1 0x0 DUP1 PUSH1 0x0 PUSH1 0x60 DUP5 DUP7 SUB SLT ISZERO PUSH2 0xF77 JUMPI DUP1 DUP2 REVERT JUMPDEST DUP4 CALLDATALOAD PUSH2 0xF82 DUP2 PUSH2 0x1310 JUMP JUMPDEST SWAP3 POP PUSH1 0x20 DUP5 ADD CALLDATALOAD SWAP2 POP PUSH1 0x40 DUP5 ADD CALLDATALOAD PUSH2 0xF99 DUP2 PUSH2 0x1310 JUMP JUMPDEST DUP1 SWAP2 POP POP SWAP3 POP SWAP3 POP SWAP3 JUMP JUMPDEST PUSH1 0x0 DUP1 PUSH1 0x0 PUSH1 0x60 DUP5 DUP7 SUB SLT ISZERO PUSH2 0xFB8 JUMPI DUP3 DUP4 REVERT JUMPDEST DUP4 MLOAD PUSH2 0xFC3 DUP2 PUSH2 0x1328 JUMP JUMPDEST PUSH1 0x20 DUP6 ADD MLOAD SWAP1 SWAP4 POP PUSH2 0xFD4 DUP2 PUSH2 0x1328 JUMP JUMPDEST PUSH1 0x40 DUP6 ADD MLOAD SWAP1 SWAP3 POP PUSH4 0xFFFFFFFF DUP2 AND DUP2 EQ PUSH2 0xF99 JUMPI DUP2 DUP3 REVERT JUMPDEST PUSH1 0x0 PUSH1 0x20 DUP3 DUP5 SUB SLT ISZERO PUSH2 0xFFE JUMPI DUP1 DUP2 REVERT JUMPDEST POP CALLDATALOAD SWAP2 SWAP1 POP JUMP JUMPDEST PUSH1 0x0 PUSH1 0x20 DUP3 DUP5 SUB SLT ISZERO PUSH2 0x1016 JUMPI DUP1 DUP2 REVERT JUMPDEST POP MLOAD SWAP2 SWAP1 POP JUMP JUMPDEST PUSH12 0xFFFFFFFFFFFFFFFFFFFFFFFF NOT PUSH1 0x60 SWAP4 DUP5 SHL DUP2 AND DUP3 MSTORE SWAP2 SWAP1 SWAP3 SHL AND PUSH1 0x14 DUP3 ADD MSTORE PUSH1 0x28 ADD SWAP1 JUMP JUMPDEST PUSH1 0x1 PUSH1 0x1 PUSH1 0xF8 SHL SUB NOT DUP2 MSTORE PUSH1 0x60 SWAP3 SWAP1 SWAP3 SHL PUSH12 0xFFFFFFFFFFFFFFFFFFFFFFFF NOT AND PUSH1 0x1 DUP4 ADD MSTORE PUSH1 0x15 DUP3 ADD MSTORE PUSH32 0x96E8AC4277198FF8B6F785478AA9A39F403CB768DD02CBEE326C3E7DA348845F PUSH1 0x35 DUP3 ADD MSTORE PUSH1 0x55 ADD SWAP1 JUMP JUMPDEST PUSH1 0x1 PUSH1 0x1 PUSH1 0xA0 SHL SUB SWAP2 SWAP1 SWAP2 AND DUP2 MSTORE PUSH1 0x20 ADD SWAP1 JUMP JUMPDEST PUSH1 0x20 DUP1 DUP3 MSTORE PUSH1 0x33 SWAP1 DUP3 ADD MSTORE PUSH32 0x536C6964696E6757696E646F774F7261636C653A204D495353494E475F484953 PUSH1 0x40 DUP3 ADD MSTORE PUSH19 0x2A27A924A1A0A62FA7A129A2A92B20AA24A7A7 PUSH1 0x69 SHL PUSH1 0x60 DUP3 ADD MSTORE PUSH1 0x80 ADD SWAP1 JUMP JUMPDEST PUSH1 0x20 DUP1 DUP3 MSTORE PUSH1 0x2C SWAP1 DUP3 ADD MSTORE PUSH32 0x536C6964696E6757696E646F774F7261636C653A20554E45585045435445445F PUSH1 0x40 DUP3 ADD MSTORE PUSH12 0x1512535157D153105414D151 PUSH1 0xA2 SHL PUSH1 0x60 DUP3 ADD MSTORE PUSH1 0x80 ADD SWAP1 JUMP JUMPDEST PUSH1 0x20 DUP1 DUP3 MSTORE PUSH1 0x19 SWAP1 DUP3 ADD MSTORE PUSH32 0x4669786564506F696E743A3A6D756C3A206F766572666C6F7700000000000000 PUSH1 0x40 DUP3 ADD MSTORE PUSH1 0x60 ADD SWAP1 JUMP JUMPDEST PUSH1 0x20 DUP1 DUP3 MSTORE PUSH1 0x25 SWAP1 DUP3 ADD MSTORE PUSH32 0x556E697377617056324C6962726172793A204944454E544943414C5F41444452 PUSH1 0x40 DUP3 ADD MSTORE PUSH5 0x4553534553 PUSH1 0xD8 SHL PUSH1 0x60 DUP3 ADD MSTORE PUSH1 0x80 ADD SWAP1 JUMP JUMPDEST PUSH1 0x20 DUP1 DUP3 MSTORE PUSH1 0x26 SWAP1 DUP3 ADD MSTORE PUSH32 0x4669786564506F696E743A3A6672616374696F6E3A206469766973696F6E2062 PUSH1 0x40 DUP3 ADD MSTORE PUSH6 0x79207A65726F PUSH1 0xD0 SHL PUSH1 0x60 DUP3 ADD MSTORE PUSH1 0x80 ADD SWAP1 JUMP JUMPDEST PUSH1 0x20 DUP1 DUP3 MSTORE PUSH1 0x1A SWAP1 DUP3 ADD MSTORE PUSH32 0x46756C6C4D6174683A2046554C4C4449565F4F564552464C4F57000000000000 PUSH1 0x40 DUP3 ADD MSTORE PUSH1 0x60 ADD SWAP1 JUMP JUMPDEST PUSH1 0x20 DUP1 DUP3 MSTORE PUSH1 0x1E SWAP1 DUP3 ADD MSTORE PUSH32 0x4669786564506F696E743A3A6672616374696F6E3A206F766572666C6F770000 PUSH1 0x40 DUP3 ADD MSTORE PUSH1 0x60 ADD SWAP1 JUMP JUMPDEST PUSH1 0x20 DUP1 DUP3 MSTORE PUSH1 0x1E SWAP1 DUP3 ADD MSTORE PUSH32 0x556E697377617056324C6962726172793A205A45524F5F414444524553530000 PUSH1 0x40 DUP3 ADD MSTORE PUSH1 0x60 ADD SWAP1 JUMP JUMPDEST DUP2 MLOAD DUP2 MSTORE PUSH1 0x20 DUP1 DUP4 ADD MLOAD SWAP1 DUP3 ADD MSTORE PUSH1 0x40 SWAP2 DUP3 ADD MLOAD SWAP2 DUP2 ADD SWAP2 SWAP1 SWAP2 MSTORE PUSH1 0x60 ADD SWAP1 JUMP JUMPDEST SWAP1 DUP2 MSTORE PUSH1 0x20 ADD SWAP1 JUMP JUMPDEST SWAP2 DUP3 MSTORE PUSH1 0x20 DUP3 ADD MSTORE PUSH1 0x40 ADD SWAP1 JUMP JUMPDEST SWAP3 DUP4 MSTORE PUSH1 0x20 DUP4 ADD SWAP2 SWAP1 SWAP2 MSTORE PUSH1 0x40 DUP3 ADD MSTORE PUSH1 0x60 ADD SWAP1 JUMP JUMPDEST PUSH1 0xFF SWAP2 SWAP1 SWAP2 AND DUP2 MSTORE PUSH1 0x20 ADD SWAP1 JUMP JUMPDEST PUSH1 0x1 PUSH1 0x1 PUSH1 0xA0 SHL SUB DUP2 AND DUP2 EQ PUSH2 0x1325 JUMPI PUSH1 0x0 DUP1 REVERT JUMPDEST POP JUMP JUMPDEST PUSH1 0x1 PUSH1 0x1 PUSH1 0x70 SHL SUB DUP2 AND DUP2 EQ PUSH2 0x1325 JUMPI PUSH1 0x0 DUP1 REVERT INVALID LOG2 PUSH5 0x6970667358 0x22 SLT KECCAK256 GASLIMIT PUSH8 0x4122598B18F7A9FC 0xB3 PUSH27 0xBBCE2A4A85B1D200EF9FC2909BC8025DFAD56A8064736F6C634300 MOD MOD STOP CALLER "
		},
		"gasEstimates": {
			"creation": {
				"codeDepositCost": "995800",
				"executionCost": "infinite",
				"totalCost": "infinite"
			},
			"external": {
				"consult(address,uint256,address)": "infinite",
				"factory()": "infinite",
				"getFirstObservationInWindow2(address)": "infinite",
				"getPair()": "infinite",
				"getPrice()": "infinite",
				"getTimeElapsed(address,address)": "infinite",
				"granularity()": "infinite",
				"observationIndexOf(uint256)": "infinite",
				"pairObservations(address,uint256)": "3905",
				"periodSize()": "infinite",
				"tokenA()": "infinite",
				"tokenB()": "infinite",
				"update()": "infinite",
				"windowSize()": "infinite"
			},
			"internal": {
				"computeAmountOut(uint256,uint256,uint256,uint256)": "infinite",
				"getFirstObservationInWindow(address)": "infinite"
			}
		},
		"methodIdentifiers": {
			"consult(address,uint256,address)": "8c86f1e4",
			"factory()": "c45a0155",
			"getFirstObservationInWindow2(address)": "01687ae6",
			"getPair()": "c1f1b1b5",
			"getPrice()": "98d5fdca",
			"getTimeElapsed(address,address)": "cebb6a6c",
			"granularity()": "556f0dc7",
			"observationIndexOf(uint256)": "dbaad32f",
			"pairObservations(address,uint256)": "bfcc8e42",
			"periodSize()": "e4463eb2",
			"tokenA()": "0fc63d10",
			"tokenB()": "5f64b55b",
			"update()": "a2e62045",
			"windowSize()": "8a14117a"
		}
	},
	"abi": [
		{
			"inputs": [
				{
					"internalType": "uint256",
					"name": "windowSize_",
					"type": "uint256"
				},
				{
					"internalType": "uint8",
					"name": "granularity_",
					"type": "uint8"
				}
			],
			"stateMutability": "nonpayable",
			"type": "constructor"
		},
		{
			"inputs": [
				{
					"internalType": "address",
					"name": "tokenIn",
					"type": "address"
				},
				{
					"internalType": "uint256",
					"name": "amountIn",
					"type": "uint256"
				},
				{
					"internalType": "address",
					"name": "tokenOut",
					"type": "address"
				}
			],
			"name": "consult",
			"outputs": [
				{
					"internalType": "uint256",
					"name": "amountOut",
					"type": "uint256"
				}
			],
			"stateMutability": "view",
			"type": "function"
		},
		{
			"inputs": [],
			"name": "factory",
			"outputs": [
				{
					"internalType": "address",
					"name": "",
					"type": "address"
				}
			],
			"stateMutability": "view",
			"type": "function"
		},
		{
			"inputs": [
				{
					"internalType": "address",
					"name": "pair",
					"type": "address"
				}
			],
			"name": "getFirstObservationInWindow2",
			"outputs": [
				{
					"components": [
						{
							"internalType": "uint256",
							"name": "timestamp",
							"type": "uint256"
						},
						{
							"internalType": "uint256",
							"name": "price0Cumulative",
							"type": "uint256"
						},
						{
							"internalType": "uint256",
							"name": "price1Cumulative",
							"type": "uint256"
						}
					],
					"internalType": "struct ExampleSlidingWindowOracle.Observation",
					"name": "firstObservation",
					"type": "tuple"
				}
			],
			"stateMutability": "view",
			"type": "function"
		},
		{
			"inputs": [],
			"name": "getPair",
			"outputs": [
				{
					"internalType": "address",
					"name": "",
					"type": "address"
				}
			],
			"stateMutability": "view",
			"type": "function"
		},
		{
			"inputs": [],
			"name": "getPrice",
			"outputs": [
				{
					"internalType": "uint256",
					"name": "",
					"type": "uint256"
				},
				{
					"internalType": "uint256",
					"name": "",
					"type": "uint256"
				}
			],
			"stateMutability": "view",
			"type": "function"
		},
		{
			"inputs": [
				{
					"internalType": "address",
					"name": "tokenIn",
					"type": "address"
				},
				{
					"internalType": "address",
					"name": "tokenOut",
					"type": "address"
				}
			],
			"name": "getTimeElapsed",
			"outputs": [
				{
					"internalType": "uint256",
					"name": "",
					"type": "uint256"
				}
			],
			"stateMutability": "view",
			"type": "function"
		},
		{
			"inputs": [],
			"name": "granularity",
			"outputs": [
				{
					"internalType": "uint8",
					"name": "",
					"type": "uint8"
				}
			],
			"stateMutability": "view",
			"type": "function"
		},
		{
			"inputs": [
				{
					"internalType": "uint256",
					"name": "timestamp",
					"type": "uint256"
				}
			],
			"name": "observationIndexOf",
			"outputs": [
				{
					"internalType": "uint8",
					"name": "index",
					"type": "uint8"
				}
			],
			"stateMutability": "view",
			"type": "function"
		},
		{
			"inputs": [
				{
					"internalType": "address",
					"name": "",
					"type": "address"
				},
				{
					"internalType": "uint256",
					"name": "",
					"type": "uint256"
				}
			],
			"name": "pairObservations",
			"outputs": [
				{
					"internalType": "uint256",
					"name": "timestamp",
					"type": "uint256"
				},
				{
					"internalType": "uint256",
					"name": "price0Cumulative",
					"type": "uint256"
				},
				{
					"internalType": "uint256",
					"name": "price1Cumulative",
					"type": "uint256"
				}
			],
			"stateMutability": "view",
			"type": "function"
		},
		{
			"inputs": [],
			"name": "periodSize",
			"outputs": [
				{
					"internalType": "uint256",
					"name": "",
					"type": "uint256"
				}
			],
			"stateMutability": "view",
			"type": "function"
		},
		{
			"inputs": [],
			"name": "tokenA",
			"outputs": [
				{
					"internalType": "address",
					"name": "",
					"type": "address"
				}
			],
			"stateMutability": "view",
			"type": "function"
		},
		{
			"inputs": [],
			"name": "tokenB",
			"outputs": [
				{
					"internalType": "address",
					"name": "",
					"type": "address"
				}
			],
			"stateMutability": "view",
			"type": "function"
		},
		{
			"inputs": [],
			"name": "update",
			"outputs": [],
			"stateMutability": "nonpayable",
			"type": "function"
		},
		{
			"inputs": [],
			"name": "windowSize",
			"outputs": [
				{
					"internalType": "uint256",
					"name": "",
					"type": "uint256"
				}
			],
			"stateMutability": "view",
			"type": "function"
		}
	]
}